{
  "contractName": "nUSD",
  "abi": [
    {
      "inputs": [
        {
          "internalType": "address",
          "name": "_oracleAddress",
          "type": "address"
        }
      ],
      "stateMutability": "nonpayable",
      "type": "constructor"
    },
    {
      "anonymous": false,
      "inputs": [
        {
          "indexed": true,
          "internalType": "address",
          "name": "account",
          "type": "address"
        },
        {
          "indexed": false,
          "internalType": "uint256",
          "name": "ethAmount",
          "type": "uint256"
        },
        {
          "indexed": false,
          "internalType": "uint256",
          "name": "nusdAmount",
          "type": "uint256"
        }
      ],
      "name": "Deposit",
      "type": "event"
    },
    {
      "anonymous": false,
      "inputs": [
        {
          "indexed": true,
          "internalType": "address",
          "name": "account",
          "type": "address"
        },
        {
          "indexed": false,
          "internalType": "uint256",
          "name": "nusdAmount",
          "type": "uint256"
        },
        {
          "indexed": false,
          "internalType": "uint256",
          "name": "ethAmount",
          "type": "uint256"
        }
      ],
      "name": "Redeem",
      "type": "event"
    },
    {
      "inputs": [],
      "name": "decimals",
      "outputs": [
        {
          "internalType": "uint8",
          "name": "",
          "type": "uint8"
        }
      ],
      "stateMutability": "view",
      "type": "function"
    },
    {
      "inputs": [],
      "name": "name",
      "outputs": [
        {
          "internalType": "string",
          "name": "",
          "type": "string"
        }
      ],
      "stateMutability": "view",
      "type": "function"
    },
    {
      "inputs": [],
      "name": "symbol",
      "outputs": [
        {
          "internalType": "string",
          "name": "",
          "type": "string"
        }
      ],
      "stateMutability": "view",
      "type": "function"
    },
    {
      "inputs": [
        {
          "internalType": "uint256",
          "name": "_ethAmount",
          "type": "uint256"
        }
      ],
      "name": "deposit",
      "outputs": [],
      "stateMutability": "nonpayable",
      "type": "function"
    },
    {
      "inputs": [
        {
          "internalType": "uint256",
          "name": "_nusdAmount",
          "type": "uint256"
        }
      ],
      "name": "redeem",
      "outputs": [],
      "stateMutability": "nonpayable",
      "type": "function"
    },
    {
      "inputs": [
        {
          "internalType": "address",
          "name": "_account",
          "type": "address"
        }
      ],
      "name": "balanceOf",
      "outputs": [
        {
          "internalType": "uint256",
          "name": "",
          "type": "uint256"
        }
      ],
      "stateMutability": "view",
      "type": "function"
    },
    {
      "inputs": [],
      "name": "getTotalSupply",
      "outputs": [
        {
          "internalType": "uint256",
          "name": "",
          "type": "uint256"
        }
      ],
      "stateMutability": "view",
      "type": "function"
    }
  ],
  "bytecode": "0x608060405234801561001057600080fd5b5060405161083a38038061083a83398101604081905261002f91610054565b600280546001600160a01b0319166001600160a01b0392909216919091179055610082565b600060208284031215610065578081fd5b81516001600160a01b038116811461007b578182fd5b9392505050565b6107a9806100916000396000f3fe608060405234801561001057600080fd5b506004361061007d5760003560e01c806395d89b411161005b57806395d89b4114610082578063b6b55f25146100d5578063c4e41b22146100ea578063db006a75146100f25761007d565b806306fdde0314610082578063313ce567146100a057806370a08231146100b5575b600080fd5b61008a610105565b604051610097919061048f565b60405180910390f35b6100a8610125565b60405161009791906105ca565b6100c86100c33660046103fa565b61012a565b60405161009791906105b3565b6100e86100e3366004610428565b610149565b005b6100c861022f565b6100e8610100366004610428565b610235565b604051806040016040528060048152602001631b9554d160e21b81525081565b601281565b6001600160a01b0381166000908152602081905260409020545b919050565b600081116101725760405162461bcd60e51b815260040161016990610587565b60405180910390fd5b61017a610333565b600381905560009061018d906002610727565b6101996012600a610656565b6101a39084610727565b6101ad91906105f0565b336000908152602081905260408120805492935083929091906101d19084906105d8565b9250508190555080600160008282546101ea91906105d8565b909155505060405133907f90890809c654f11d6e72a28fa60149770a0d11ec6c92319d6ceb2bb0a4ea1a159061022390859085906105bc565b60405180910390a25050565b60015490565b600081116102555760405162461bcd60e51b8152600401610169906104e2565b61025d610333565b600355600061026e6012600a610656565b60035461027b9084610727565b610286906002610727565b61029091906105f0565b336000908152602081905260409020549091508211156102c25760405162461bcd60e51b815260040161016990610550565b33600090815260208190526040812080548492906102e1908490610746565b9250508190555081600160008282546102fa9190610746565b909155505060405133907fe5b754fb1abb7f01b499791d0b820ae3b6af3424ac1c59768edb53f4ec31a9299061022390859085906105bc565b60025460408051633fabe5a360e21b815290516000926001600160a01b0316918391839163feaf968c9160048083019260a0929190829003018186803b15801561037c57600080fd5b505afa158015610390573d6000803e3d6000fd5b505050506040513d601f19601f820116820180604052508101906103b49190610440565b505050915050600081136103da5760405162461bcd60e51b81526004016101699061050f565b91505090565b805169ffffffffffffffffffff8116811461014457600080fd5b60006020828403121561040b578081fd5b81356001600160a01b0381168114610421578182fd5b9392505050565b600060208284031215610439578081fd5b5035919050565b600080600080600060a08688031215610457578081fd5b610460866103e0565b9450602086015193506040860151925060608601519150610483608087016103e0565b90509295509295909350565b6000602080835283518082850152825b818110156104bb5785810183015185820160400152820161049f565b818111156104cc5783604083870101525b50601f01601f1916929092016040019392505050565b602080825260139082015272125b9d985b1a59081b9554d108185b5bdd5b9d606a1b604082015260600190565b60208082526021908201527f496e76616c6964204554482070726963652066726f6d20746865206f7261636c6040820152606560f81b606082015260800190565b60208082526019908201527f496e73756666696369656e74206e5553442062616c616e636500000000000000604082015260600190565b602080825260129082015271125b9d985b1a590811551208185b5bdd5b9d60721b604082015260600190565b90815260200190565b918252602082015260400190565b60ff91909116815260200190565b600082198211156105eb576105eb61075d565b500190565b60008261060b57634e487b7160e01b81526012600452602481fd5b500490565b80825b6001808611610622575061064d565b8187048211156106345761063461075d565b8086161561064157918102915b9490941c938002610613565b94509492505050565b600061042160001960ff85168460008261067257506001610421565b8161067f57506000610421565b8160018114610695576002811461069f576106cc565b6001915050610421565b60ff8411156106b0576106b061075d565b6001841b9150848211156106c6576106c661075d565b50610421565b5060208310610133831016604e8410600b84101617156106ff575081810a838111156106fa576106fa61075d565b610421565b61070c8484846001610610565b80860482111561071e5761071e61075d565b02949350505050565b60008160001904831182151516156107415761074161075d565b500290565b6000828210156107585761075861075d565b500390565b634e487b7160e01b600052601160045260246000fdfea2646970667358221220e93c033e1c6622a0a97b79efaf9ceea2ef0f440c55c1b657e30b24dbff789fd664736f6c63430008000033",
  "immutableReferences": {},
  "source": "// SPDX-License-Identifier: MIT\npragma solidity ^0.8.0;\n\nimport \"@chainlink/contracts/src/v0.8/interfaces/AggregatorV3Interface.sol\";\n\ncontract nUSD {\n    string public constant name = \"nUSD\";\n    string public constant symbol = \"nUSD\";\n    uint8 public constant decimals = 18;\n\n    mapping(address => uint256) private balances;\n    uint256 private totalSupply;\n\n    address private oracleAddress;\n    uint256 private ethPrice;\n\n    event Deposit(address indexed account, uint256 ethAmount, uint256 nusdAmount);\n    event Redeem(address indexed account, uint256 nusdAmount, uint256 ethAmount);\n\n    constructor(address _oracleAddress) {\n        oracleAddress = _oracleAddress;\n    }\n\n    function deposit(uint256 _ethAmount) external {\n        require(_ethAmount > 0, \"Invalid ETH amount\");\n\n        // Fetch ETH price from the oracle\n        ethPrice = getEthPrice();\n\n        // Calculate the amount of nUSD to mint\n        uint256 nusdAmount = (_ethAmount * 10**decimals) / (ethPrice * 2);\n\n        // Mint new nUSD tokens\n        balances[msg.sender] += nusdAmount;\n        totalSupply += nusdAmount;\n\n        emit Deposit(msg.sender, _ethAmount, nusdAmount);\n    }\n\n    function redeem(uint256 _nusdAmount) external {\n        require(_nusdAmount > 0, \"Invalid nUSD amount\");\n\n        // Fetch ETH price from the oracle\n        ethPrice = getEthPrice();\n\n        // Calculate the amount of ETH to redeem\n        uint256 ethAmount = (_nusdAmount * ethPrice * 2) / (10**decimals);\n\n        // Burn nUSD tokens\n        require(balances[msg.sender] >= _nusdAmount, \"Insufficient nUSD balance\");\n        balances[msg.sender] -= _nusdAmount;\n        totalSupply -= _nusdAmount;\n\n        emit Redeem(msg.sender, _nusdAmount, ethAmount);\n    }\n\n    function getEthPrice() private view returns (uint256) {\n        AggregatorV3Interface priceFeed = AggregatorV3Interface(oracleAddress);\n        (, int256 latestPrice, , , ) = priceFeed.latestRoundData();\n        require(latestPrice > 0, \"Invalid ETH price from the oracle\");\n        return uint256(latestPrice);\n    }\n\n    function balanceOf(address _account) external view returns (uint256) {\n        return balances[_account];\n    }\n\n    function getTotalSupply() external view returns (uint256) {\n        return totalSupply;\n    }\n}\n",
  "sourcePath": "/home/NIJA/ETHEREUM/Ganache/nUSD/contracts/nUSD.sol",
  "compiler": {
    "name": "solc",
    "version": "0.8.0+commit.c7dfd78e.Emscripten.clang"
  },
  "schemaVersion": "3.4.14",
  "updatedAt": "2023-06-29T22:40:01.386Z",
  "devdoc": {
    "kind": "dev",
    "methods": {},
    "version": 1
  },
  "userdoc": {
    "kind": "user",
    "methods": {},
    "version": 1
  }
}